{
  "contractName": "ConectumICO",
  "abi": [
    {
      "constant": true,
      "inputs": [],
      "name": "rate",
      "outputs": [
        {
          "name": "",
          "type": "uint256"
        }
      ],
      "payable": false,
      "stateMutability": "view",
      "type": "function"
    },
    {
      "constant": true,
      "inputs": [],
      "name": "endTime",
      "outputs": [
        {
          "name": "",
          "type": "uint256"
        }
      ],
      "payable": false,
      "stateMutability": "view",
      "type": "function"
    },
    {
      "constant": true,
      "inputs": [],
      "name": "cap",
      "outputs": [
        {
          "name": "",
          "type": "uint256"
        }
      ],
      "payable": false,
      "stateMutability": "view",
      "type": "function"
    },
    {
      "constant": true,
      "inputs": [],
      "name": "goal",
      "outputs": [
        {
          "name": "",
          "type": "uint256"
        }
      ],
      "payable": false,
      "stateMutability": "view",
      "type": "function"
    },
    {
      "constant": true,
      "inputs": [],
      "name": "weiRaised",
      "outputs": [
        {
          "name": "",
          "type": "uint256"
        }
      ],
      "payable": false,
      "stateMutability": "view",
      "type": "function"
    },
    {
      "constant": false,
      "inputs": [],
      "name": "finalize",
      "outputs": [],
      "payable": false,
      "stateMutability": "nonpayable",
      "type": "function"
    },
    {
      "constant": true,
      "inputs": [],
      "name": "wallet",
      "outputs": [
        {
          "name": "",
          "type": "address"
        }
      ],
      "payable": false,
      "stateMutability": "view",
      "type": "function"
    },
    {
      "constant": true,
      "inputs": [],
      "name": "startTime",
      "outputs": [
        {
          "name": "",
          "type": "uint256"
        }
      ],
      "payable": false,
      "stateMutability": "view",
      "type": "function"
    },
    {
      "constant": true,
      "inputs": [],
      "name": "goalReached",
      "outputs": [
        {
          "name": "",
          "type": "bool"
        }
      ],
      "payable": false,
      "stateMutability": "view",
      "type": "function"
    },
    {
      "constant": true,
      "inputs": [],
      "name": "isFinalized",
      "outputs": [
        {
          "name": "",
          "type": "bool"
        }
      ],
      "payable": false,
      "stateMutability": "view",
      "type": "function"
    },
    {
      "constant": true,
      "inputs": [],
      "name": "owner",
      "outputs": [
        {
          "name": "",
          "type": "address"
        }
      ],
      "payable": false,
      "stateMutability": "view",
      "type": "function"
    },
    {
      "constant": true,
      "inputs": [
        {
          "name": "",
          "type": "address"
        }
      ],
      "name": "referredBy",
      "outputs": [
        {
          "name": "addr",
          "type": "address"
        },
        {
          "name": "isSet",
          "type": "bool"
        }
      ],
      "payable": false,
      "stateMutability": "view",
      "type": "function"
    },
    {
      "constant": false,
      "inputs": [],
      "name": "claimRefund",
      "outputs": [],
      "payable": false,
      "stateMutability": "nonpayable",
      "type": "function"
    },
    {
      "constant": true,
      "inputs": [],
      "name": "stage",
      "outputs": [
        {
          "name": "",
          "type": "uint256"
        }
      ],
      "payable": false,
      "stateMutability": "view",
      "type": "function"
    },
    {
      "constant": true,
      "inputs": [],
      "name": "hasEnded",
      "outputs": [
        {
          "name": "",
          "type": "bool"
        }
      ],
      "payable": false,
      "stateMutability": "view",
      "type": "function"
    },
    {
      "constant": false,
      "inputs": [
        {
          "name": "newOwner",
          "type": "address"
        }
      ],
      "name": "transferOwnership",
      "outputs": [],
      "payable": false,
      "stateMutability": "nonpayable",
      "type": "function"
    },
    {
      "constant": true,
      "inputs": [],
      "name": "vault",
      "outputs": [
        {
          "name": "",
          "type": "address"
        }
      ],
      "payable": false,
      "stateMutability": "view",
      "type": "function"
    },
    {
      "constant": true,
      "inputs": [],
      "name": "token",
      "outputs": [
        {
          "name": "",
          "type": "address"
        }
      ],
      "payable": false,
      "stateMutability": "view",
      "type": "function"
    },
    {
      "inputs": [
        {
          "name": "_startTime",
          "type": "uint256"
        },
        {
          "name": "_softcap",
          "type": "uint256"
        },
        {
          "name": "_hardcap",
          "type": "uint256"
        },
        {
          "name": "_wallet",
          "type": "address"
        },
        {
          "name": "_stageLengths",
          "type": "uint256[]"
        },
        {
          "name": "_stageBreaks",
          "type": "uint256[]"
        },
        {
          "name": "_stageRates",
          "type": "uint256[]"
        },
        {
          "name": "_token",
          "type": "address"
        }
      ],
      "payable": false,
      "stateMutability": "nonpayable",
      "type": "constructor"
    },
    {
      "payable": true,
      "stateMutability": "payable",
      "type": "fallback"
    },
    {
      "anonymous": false,
      "inputs": [
        {
          "indexed": false,
          "name": "referrer",
          "type": "address"
        },
        {
          "indexed": false,
          "name": "bonus",
          "type": "uint256"
        }
      ],
      "name": "GiveReferrerBonus",
      "type": "event"
    },
    {
      "anonymous": false,
      "inputs": [],
      "name": "Finalized",
      "type": "event"
    },
    {
      "anonymous": false,
      "inputs": [
        {
          "indexed": true,
          "name": "previousOwner",
          "type": "address"
        },
        {
          "indexed": true,
          "name": "newOwner",
          "type": "address"
        }
      ],
      "name": "OwnershipTransferred",
      "type": "event"
    },
    {
      "anonymous": false,
      "inputs": [
        {
          "indexed": true,
          "name": "purchaser",
          "type": "address"
        },
        {
          "indexed": true,
          "name": "beneficiary",
          "type": "address"
        },
        {
          "indexed": false,
          "name": "value",
          "type": "uint256"
        },
        {
          "indexed": false,
          "name": "amount",
          "type": "uint256"
        }
      ],
      "name": "TokenPurchase",
      "type": "event"
    },
    {
      "constant": false,
      "inputs": [
        {
          "name": "beneficiary",
          "type": "address"
        }
      ],
      "name": "buyTokens",
      "outputs": [],
      "payable": true,
      "stateMutability": "payable",
      "type": "function"
    },
    {
      "constant": false,
      "inputs": [],
      "name": "incStage",
      "outputs": [],
      "payable": false,
      "stateMutability": "nonpayable",
      "type": "function"
    },
    {
      "constant": true,
      "inputs": [],
      "name": "getStageStart",
      "outputs": [
        {
          "name": "",
          "type": "uint256"
        }
      ],
      "payable": false,
      "stateMutability": "view",
      "type": "function"
    },
    {
      "constant": true,
      "inputs": [],
      "name": "getStageEnd",
      "outputs": [
        {
          "name": "",
          "type": "uint256"
        }
      ],
      "payable": false,
      "stateMutability": "view",
      "type": "function"
    },
    {
      "constant": false,
      "inputs": [
        {
          "name": "participant",
          "type": "address"
        },
        {
          "name": "referrer",
          "type": "address"
        }
      ],
      "name": "setReference",
      "outputs": [],
      "payable": false,
      "stateMutability": "nonpayable",
      "type": "function"
    },
    {
      "constant": false,
      "inputs": [
        {
          "name": "participants",
          "type": "address[]"
        },
        {
          "name": "referrers",
          "type": "address[]"
        }
      ],
      "name": "setReferenceBatch",
      "outputs": [],
      "payable": false,
      "stateMutability": "nonpayable",
      "type": "function"
    },
    {
      "constant": true,
      "inputs": [],
      "name": "isActive",
      "outputs": [
        {
          "name": "",
          "type": "bool"
        }
      ],
      "payable": false,
      "stateMutability": "view",
      "type": "function"
    }
  ],
  "bytecode": "0x60606040526000600760146101000a81548160ff0219169083151502179055506000600b5534156200003057600080fd5b60405162002bab38038062002bab83398101604052808051906020019091908051906020019091908051906020019091908051906020019091908051820191906020018051820191906020018051820191906020018051906020019091905050868689620000b48b88886200053764010000000002620019d6176401000000009004565b856000815181101515620000c457fe5b906020019060200201518986428510151515620000e057600080fd5b848410151515620000f057600080fd5b6000831115156200010057600080fd5b600073ffffffffffffffffffffffffffffffffffffffff168273ffffffffffffffffffffffffffffffffffffffff16141515156200013d57600080fd5b600073ffffffffffffffffffffffffffffffffffffffff168173ffffffffffffffffffffffffffffffffffffffff16141515156200017a57600080fd5b84600181905550836002819055508260048190555081600360006101000a81548173ffffffffffffffffffffffffffffffffffffffff021916908373ffffffffffffffffffffffffffffffffffffffff160217905550806000806101000a81548173ffffffffffffffffffffffffffffffffffffffff021916908373ffffffffffffffffffffffffffffffffffffffff16021790555050505050506000811115156200022557600080fd5b806006819055505033600760006101000a81548173ffffffffffffffffffffffffffffffffffffffff021916908373ffffffffffffffffffffffffffffffffffffffff1602179055506000811115156200027e57600080fd5b600360009054906101000a900473ffffffffffffffffffffffffffffffffffffffff16620002ab620005c1565b808273ffffffffffffffffffffffffffffffffffffffff1673ffffffffffffffffffffffffffffffffffffffff168152602001915050604051809103906000f0801515620002f857600080fd5b600960006101000a81548173ffffffffffffffffffffffffffffffffffffffff021916908373ffffffffffffffffffffffffffffffffffffffff1602179055508060088190555050815184511415156200035157600080fd5b835160018451011415156200036557600080fd5b81600a90805190602001906200037d929190620005d2565b506060604051908101604052806001548152602001846000815181101515620003a257fe5b90602001906020020151866000815181101515620003bc57fe5b9060200190602002015160015401018152602001846001815181101515620003e057fe5b90602001906020020151866001815181101515620003fa57fe5b906020019060200201518660008151811015156200041457fe5b906020019060200201518860008151811015156200042e57fe5b9060200190602002015160015401010101815250600c9060036200045492919062000624565b506060604051908101604052808560008151811015156200047157fe5b90602001906020020151600c60008154811015156200048c57fe5b906000526020600020900154018152602001856001815181101515620004ae57fe5b90602001906020020151600c6001815481101515620004c957fe5b906000526020600020900154018152602001856002815181101515620004eb57fe5b90602001906020020151600c60028154811015156200050657fe5b90600052602060002090015401815250600d9060036200052892919062000624565b5050505050505050506200069e565b600080600080869250600091505b85518210156200057a5785828151811015156200055e57fe5b9060200190602002015183019250818060010192505062000545565b600090505b8451811015620005b45784818151811015156200059857fe5b906020019060200201518301925080806001019150506200057f565b8293505050509392505050565b604051610a77806200213483390190565b82805482825590600052602060002090810192821562000611579160200282015b8281111562000610578251825591602001919060010190620005f3565b5b50905062000620919062000676565b5090565b82805482825590600052602060002090810192821562000663579160200282015b828111156200066257825182559160200191906001019062000645565b5b50905062000672919062000676565b5090565b6200069b91905b80821115620006975760008160009055506001016200067d565b5090565b90565b611a8680620006ae6000396000f300606060405260043610610149576000357c0100000000000000000000000000000000000000000000000000000000900463ffffffff16806322f3e2d4146101545780632c4e722e146101815780632c9f823d146101aa5780633197cbb6146101d3578063355274ea146101fc57806340193883146102255780634042b66f1461024e5780634bb278f314610277578063521eb2731461028c5780635b0f3bd8146102e157806378e979251461030a5780637d3d6522146103335780638d4e4083146103605780638da5cb5b1461038d5780639a82e39e146103e2578063a90f8e9a146103f7578063b5545a3c1461047b578063c040e6b814610490578063defbb3a5146104b9578063ec8ac4d814610511578063ecb70fb71461053f578063ed27fa091461056c578063f2fde38b146105ae578063fbfa77cf146105e7578063fc0c546a1461063c575b61015233610691565b005b341561015f57600080fd5b6101676108e5565b604051808215151515815260200191505060405180910390f35b341561018c57600080fd5b61019461093f565b6040518082815260200191505060405180910390f35b34156101b557600080fd5b6101bd610945565b6040518082815260200191505060405180910390f35b34156101de57600080fd5b6101e6610969565b6040518082815260200191505060405180910390f35b341561020757600080fd5b61020f61096f565b6040518082815260200191505060405180910390f35b341561023057600080fd5b610238610975565b6040518082815260200191505060405180910390f35b341561025957600080fd5b61026161097b565b6040518082815260200191505060405180910390f35b341561028257600080fd5b61028a610981565b005b341561029757600080fd5b61029f610a5d565b604051808273ffffffffffffffffffffffffffffffffffffffff1673ffffffffffffffffffffffffffffffffffffffff16815260200191505060405180910390f35b34156102ec57600080fd5b6102f4610a83565b6040518082815260200191505060405180910390f35b341561031557600080fd5b61031d610aa7565b6040518082815260200191505060405180910390f35b341561033e57600080fd5b610346610aad565b604051808215151515815260200191505060405180910390f35b341561036b57600080fd5b610373610abc565b604051808215151515815260200191505060405180910390f35b341561039857600080fd5b6103a0610acf565b604051808273ffffffffffffffffffffffffffffffffffffffff1673ffffffffffffffffffffffffffffffffffffffff16815260200191505060405180910390f35b34156103ed57600080fd5b6103f5610af5565b005b341561040257600080fd5b61042e600480803573ffffffffffffffffffffffffffffffffffffffff16906020019091905050610bbb565b604051808373ffffffffffffffffffffffffffffffffffffffff1673ffffffffffffffffffffffffffffffffffffffff168152602001821515151581526020019250505060405180910390f35b341561048657600080fd5b61048e610c0c565b005b341561049b57600080fd5b6104a3610d0d565b6040518082815260200191505060405180910390f35b34156104c457600080fd5b61050f600480803573ffffffffffffffffffffffffffffffffffffffff1690602001909190803573ffffffffffffffffffffffffffffffffffffffff16906020019091905050610d13565b005b61053d600480803573ffffffffffffffffffffffffffffffffffffffff16906020019091905050610691565b005b341561054a57600080fd5b610552610f42565b604051808215151515815260200191505060405180910390f35b341561057757600080fd5b6105ac600480803590602001908201803590602001919091929080359060200190820180359060200191909192905050610f65565b005b34156105b957600080fd5b6105e5600480803573ffffffffffffffffffffffffffffffffffffffff16906020019091905050611126565b005b34156105f257600080fd5b6105fa61127e565b604051808273ffffffffffffffffffffffffffffffffffffffff1673ffffffffffffffffffffffffffffffffffffffff16815260200191505060405180910390f35b341561064757600080fd5b61064f6112a4565b604051808273ffffffffffffffffffffffffffffffffffffffff1673ffffffffffffffffffffffffffffffffffffffff16815260200191505060405180910390f35b6000806000806106a0856112c9565b3493506106ac846114a6565b92506106b66114e3565b801561070e5750600e60003373ffffffffffffffffffffffffffffffffffffffff1673ffffffffffffffffffffffffffffffffffffffff16815260200190815260200160002060000160149054906101000a900460ff165b156108de57600e60003373ffffffffffffffffffffffffffffffffffffffff1673ffffffffffffffffffffffffffffffffffffffff16815260200190815260200160002060000160009054906101000a900473ffffffffffffffffffffffffffffffffffffffff1691506064600a840281151561078757fe5b0490506000809054906101000a900473ffffffffffffffffffffffffffffffffffffffff1673ffffffffffffffffffffffffffffffffffffffff166340c10f1983836000604051602001526040518363ffffffff167c0100000000000000000000000000000000000000000000000000000000028152600401808373ffffffffffffffffffffffffffffffffffffffff1673ffffffffffffffffffffffffffffffffffffffff16815260200182815260200192505050602060405180830381600087803b151561085657600080fd5b6102c65a03f1151561086757600080fd5b50505060405180519050507febcfbf8a97b83030f83abf77d91e91f7aa3274d8ef1d54daab38ff6acd015ca68282604051808373ffffffffffffffffffffffffffffffffffffffff1673ffffffffffffffffffffffffffffffffffffffff1681526020018281526020019250505060405180910390a15b5050505050565b6000806000600c600b548154811015156108fb57fe5b9060005260206000209001549150600d600b5481548110151561091a57fe5b90600052602060002090015490508142101580156109385750804211155b9250505090565b60045481565b6000600d600b5481548110151561095857fe5b906000526020600020900154905090565b60025481565b60065481565b60085481565b60055481565b600760009054906101000a900473ffffffffffffffffffffffffffffffffffffffff1673ffffffffffffffffffffffffffffffffffffffff163373ffffffffffffffffffffffffffffffffffffffff161415156109dd57600080fd5b600760149054906101000a900460ff161515156109f957600080fd5b610a01610f42565b1515610a0c57600080fd5b610a146114ef565b7f6823b073d48d6e3a7d385eeb601452d680e74bb46afe3255a7d778f3a9b1768160405160405180910390a16001600760146101000a81548160ff021916908315150217905550565b600360009054906101000a900473ffffffffffffffffffffffffffffffffffffffff1681565b6000600c600b54815481101515610a9657fe5b906000526020600020900154905090565b60015481565b60006008546005541015905090565b600760149054906101000a900460ff1681565b600760009054906101000a900473ffffffffffffffffffffffffffffffffffffffff1681565b600760009054906101000a900473ffffffffffffffffffffffffffffffffffffffff1673ffffffffffffffffffffffffffffffffffffffff163373ffffffffffffffffffffffffffffffffffffffff16141515610b5157600080fd5b42600d600b54815481101515610b6357fe5b906000526020600020900154101515610b7b57600080fd5b600c6001600b5401815481101515610b8f57fe5b90600052602060002090015442101515610ba857600080fd5b6001600b60008282540192505081905550565b600e6020528060005260406000206000915090508060000160009054906101000a900473ffffffffffffffffffffffffffffffffffffffff16908060000160149054906101000a900460ff16905082565b600760149054906101000a900460ff161515610c2757600080fd5b610c2f610aad565b151515610c3b57600080fd5b600960009054906101000a900473ffffffffffffffffffffffffffffffffffffffff1673ffffffffffffffffffffffffffffffffffffffff1663fa89401a336040518263ffffffff167c0100000000000000000000000000000000000000000000000000000000028152600401808273ffffffffffffffffffffffffffffffffffffffff1673ffffffffffffffffffffffffffffffffffffffff168152602001915050600060405180830381600087803b1515610cf757600080fd5b6102c65a03f11515610d0857600080fd5b505050565b600b5481565b600760009054906101000a900473ffffffffffffffffffffffffffffffffffffffff1673ffffffffffffffffffffffffffffffffffffffff163373ffffffffffffffffffffffffffffffffffffffff16141515610d6f57600080fd5b600073ffffffffffffffffffffffffffffffffffffffff168273ffffffffffffffffffffffffffffffffffffffff1614151515610dab57600080fd5b600073ffffffffffffffffffffffffffffffffffffffff168173ffffffffffffffffffffffffffffffffffffffff1614151515610de757600080fd5b610def6108e5565b1515610dfa57600080fd5b6000600b54141515610e0b57600080fd5b600e60008373ffffffffffffffffffffffffffffffffffffffff1673ffffffffffffffffffffffffffffffffffffffff16815260200190815260200160002060000160149054906101000a900460ff16151515610e6757600080fd5b60408051908101604052808273ffffffffffffffffffffffffffffffffffffffff16815260200160011515815250600e60008473ffffffffffffffffffffffffffffffffffffffff1673ffffffffffffffffffffffffffffffffffffffff16815260200190815260200160002060008201518160000160006101000a81548173ffffffffffffffffffffffffffffffffffffffff021916908373ffffffffffffffffffffffffffffffffffffffff16021790555060208201518160000160146101000a81548160ff0219169083151502179055509050505050565b600080600654600554101590508080610f5f5750610f5e611693565b5b91505090565b6000600760009054906101000a900473ffffffffffffffffffffffffffffffffffffffff1673ffffffffffffffffffffffffffffffffffffffff163373ffffffffffffffffffffffffffffffffffffffff16141515610fc357600080fd5b8282905085859050141515610fd757600080fd5b600090505b8484905081101561111f576040805190810160405280848484818110151561100057fe5b9050602002013573ffffffffffffffffffffffffffffffffffffffff1673ffffffffffffffffffffffffffffffffffffffff16815260200160011515815250600e6000878785818110151561105157fe5b9050602002013573ffffffffffffffffffffffffffffffffffffffff1673ffffffffffffffffffffffffffffffffffffffff1673ffffffffffffffffffffffffffffffffffffffff16815260200190815260200160002060008201518160000160006101000a81548173ffffffffffffffffffffffffffffffffffffffff021916908373ffffffffffffffffffffffffffffffffffffffff16021790555060208201518160000160146101000a81548160ff0219169083151502179055509050508080600101915050610fdc565b5050505050565b600760009054906101000a900473ffffffffffffffffffffffffffffffffffffffff1673ffffffffffffffffffffffffffffffffffffffff163373ffffffffffffffffffffffffffffffffffffffff1614151561118257600080fd5b600073ffffffffffffffffffffffffffffffffffffffff168173ffffffffffffffffffffffffffffffffffffffff16141515156111be57600080fd5b8073ffffffffffffffffffffffffffffffffffffffff16600760009054906101000a900473ffffffffffffffffffffffffffffffffffffffff1673ffffffffffffffffffffffffffffffffffffffff167f8be0079c531659141344cd1fd0a4f28419497f9722a3daafe3b4186f6b6457e060405160405180910390a380600760006101000a81548173ffffffffffffffffffffffffffffffffffffffff021916908373ffffffffffffffffffffffffffffffffffffffff16021790555050565b600960009054906101000a900473ffffffffffffffffffffffffffffffffffffffff1681565b6000809054906101000a900473ffffffffffffffffffffffffffffffffffffffff1681565b600080600073ffffffffffffffffffffffffffffffffffffffff168373ffffffffffffffffffffffffffffffffffffffff161415151561130857600080fd5b61131061169f565b151561131b57600080fd5b349150611327826114a6565b905061133e826005546116f090919063ffffffff16565b6005819055506000809054906101000a900473ffffffffffffffffffffffffffffffffffffffff1673ffffffffffffffffffffffffffffffffffffffff166340c10f1984836000604051602001526040518363ffffffff167c0100000000000000000000000000000000000000000000000000000000028152600401808373ffffffffffffffffffffffffffffffffffffffff1673ffffffffffffffffffffffffffffffffffffffff16815260200182815260200192505050602060405180830381600087803b151561141057600080fd5b6102c65a03f1151561142157600080fd5b50505060405180519050508273ffffffffffffffffffffffffffffffffffffffff163373ffffffffffffffffffffffffffffffffffffffff167f623b3804fa71d67900d064613da8f94b9617215ee90799290593e1745087ad188484604051808381526020018281526020019250505060405180910390a36114a161170e565b505050565b600080600a600b548154811015156114ba57fe5b90600052602060002090015490506114db81846117e190919063ffffffff16565b915050919050565b600080600b5414905090565b6114f761181c565b6000809054906101000a900473ffffffffffffffffffffffffffffffffffffffff1673ffffffffffffffffffffffffffffffffffffffff16637d64bcb46000604051602001526040518163ffffffff167c0100000000000000000000000000000000000000000000000000000000028152600401602060405180830381600087803b151561158457600080fd5b6102c65a03f1151561159557600080fd5b50505060405180519050506000809054906101000a900473ffffffffffffffffffffffffffffffffffffffff1673ffffffffffffffffffffffffffffffffffffffff1663f2fde38b600760009054906101000a900473ffffffffffffffffffffffffffffffffffffffff166040518263ffffffff167c0100000000000000000000000000000000000000000000000000000000028152600401808273ffffffffffffffffffffffffffffffffffffffff1673ffffffffffffffffffffffffffffffffffffffff168152602001915050600060405180830381600087803b151561167d57600080fd5b6102c65a03f1151561168e57600080fd5b505050565b60006002544211905090565b6000806702c68af0bb14000034101590506116b86108e5565b80156116c15750805b80156116da5750600760149054906101000a900460ff16155b80156116ea57506116e961196b565b5b91505090565b600080828401905083811015151561170457fe5b8091505092915050565b600960009054906101000a900473ffffffffffffffffffffffffffffffffffffffff1673ffffffffffffffffffffffffffffffffffffffff1663f340fa0134336040518363ffffffff167c0100000000000000000000000000000000000000000000000000000000028152600401808273ffffffffffffffffffffffffffffffffffffffff1673ffffffffffffffffffffffffffffffffffffffff1681526020019150506000604051808303818588803b15156117ca57600080fd5b6125ee5a03f115156117db57600080fd5b50505050565b60008060008414156117f65760009150611815565b828402905082848281151561180757fe5b0414151561181157fe5b8091505b5092915050565b611824610aad565b156118c757600960009054906101000a900473ffffffffffffffffffffffffffffffffffffffff1673ffffffffffffffffffffffffffffffffffffffff166343d726d66040518163ffffffff167c0100000000000000000000000000000000000000000000000000000000028152600401600060405180830381600087803b15156118ae57600080fd5b6102c65a03f115156118bf57600080fd5b505050611961565b600960009054906101000a900473ffffffffffffffffffffffffffffffffffffffff1673ffffffffffffffffffffffffffffffffffffffff16638c52dc416040518163ffffffff167c0100000000000000000000000000000000000000000000000000000000028152600401600060405180830381600087803b151561194c57600080fd5b6102c65a03f1151561195d57600080fd5b5050505b6119696119a1565b565b600080600654611986346005546116f090919063ffffffff16565b1115905080801561199b575061199a6119a3565b5b91505090565b565b600080600060015442101580156119bc57506002544211155b9150600034141590508180156119cf5750805b9250505090565b600080600080869250600091505b8551821015611a165785828151811015156119fb57fe5b906020019060200201518301925081806001019250506119e4565b600090505b8451811015611a4d578481815181101515611a3257fe5b90602001906020020151830192508080600101915050611a1b565b82935050505093925050505600a165627a7a7230582082ca3585ad64f2d515bb5d65f8a7daf3d12b4b818a23895b28a2e92ae0857a1f00296060604052341561000f57600080fd5b604051602080610a7783398101604052808051906020019091905050336000806101000a81548173ffffffffffffffffffffffffffffffffffffffff021916908373ffffffffffffffffffffffffffffffffffffffff160217905550600073ffffffffffffffffffffffffffffffffffffffff168173ffffffffffffffffffffffffffffffffffffffff16141515156100a757600080fd5b80600260006101000a81548173ffffffffffffffffffffffffffffffffffffffff021916908373ffffffffffffffffffffffffffffffffffffffff1602179055506000600260146101000a81548160ff0219169083600281111561010757fe5b02179055505061095b8061011c6000396000f300606060405260043610610099576000357c0100000000000000000000000000000000000000000000000000000000900463ffffffff16806343d726d61461009e578063521eb273146100b35780638c52dc41146101085780638da5cb5b1461011d578063c19d93fb14610172578063cb13cddb146101a9578063f2fde38b146101f6578063f340fa011461022f578063fa89401a1461025d575b600080fd5b34156100a957600080fd5b6100b1610296565b005b34156100be57600080fd5b6100c66103ef565b604051808273ffffffffffffffffffffffffffffffffffffffff1673ffffffffffffffffffffffffffffffffffffffff16815260200191505060405180910390f35b341561011357600080fd5b61011b610415565b005b341561012857600080fd5b6101306104f6565b604051808273ffffffffffffffffffffffffffffffffffffffff1673ffffffffffffffffffffffffffffffffffffffff16815260200191505060405180910390f35b341561017d57600080fd5b61018561051b565b6040518082600281111561019557fe5b60ff16815260200191505060405180910390f35b34156101b457600080fd5b6101e0600480803573ffffffffffffffffffffffffffffffffffffffff1690602001909190505061052e565b6040518082815260200191505060405180910390f35b341561020157600080fd5b61022d600480803573ffffffffffffffffffffffffffffffffffffffff16906020019091905050610546565b005b61025b600480803573ffffffffffffffffffffffffffffffffffffffff1690602001909190505061069b565b005b341561026857600080fd5b610294600480803573ffffffffffffffffffffffffffffffffffffffff169060200190919050506107c2565b005b6000809054906101000a900473ffffffffffffffffffffffffffffffffffffffff1673ffffffffffffffffffffffffffffffffffffffff163373ffffffffffffffffffffffffffffffffffffffff161415156102f157600080fd5b600060028111156102fe57fe5b600260149054906101000a900460ff16600281111561031957fe5b14151561032557600080fd5b60028060146101000a81548160ff0219169083600281111561034357fe5b02179055507f1cdde67b72a90f19919ac732a437ac2f7a10fc128d28c2a6e525d89ce5cd9d3a60405160405180910390a1600260009054906101000a900473ffffffffffffffffffffffffffffffffffffffff1673ffffffffffffffffffffffffffffffffffffffff166108fc3073ffffffffffffffffffffffffffffffffffffffff16319081150290604051600060405180830381858888f1935050505015156103ed57600080fd5b565b600260009054906101000a900473ffffffffffffffffffffffffffffffffffffffff1681565b6000809054906101000a900473ffffffffffffffffffffffffffffffffffffffff1673ffffffffffffffffffffffffffffffffffffffff163373ffffffffffffffffffffffffffffffffffffffff1614151561047057600080fd5b6000600281111561047d57fe5b600260149054906101000a900460ff16600281111561049857fe5b1415156104a457600080fd5b6001600260146101000a81548160ff021916908360028111156104c357fe5b02179055507f599d8e5a83cffb867d051598c4d70e805d59802d8081c1c7d6dffc5b6aca2b8960405160405180910390a1565b6000809054906101000a900473ffffffffffffffffffffffffffffffffffffffff1681565b600260149054906101000a900460ff1681565b60016020528060005260406000206000915090505481565b6000809054906101000a900473ffffffffffffffffffffffffffffffffffffffff1673ffffffffffffffffffffffffffffffffffffffff163373ffffffffffffffffffffffffffffffffffffffff161415156105a157600080fd5b600073ffffffffffffffffffffffffffffffffffffffff168173ffffffffffffffffffffffffffffffffffffffff16141515156105dd57600080fd5b8073ffffffffffffffffffffffffffffffffffffffff166000809054906101000a900473ffffffffffffffffffffffffffffffffffffffff1673ffffffffffffffffffffffffffffffffffffffff167f8be0079c531659141344cd1fd0a4f28419497f9722a3daafe3b4186f6b6457e060405160405180910390a3806000806101000a81548173ffffffffffffffffffffffffffffffffffffffff021916908373ffffffffffffffffffffffffffffffffffffffff16021790555050565b6000809054906101000a900473ffffffffffffffffffffffffffffffffffffffff1673ffffffffffffffffffffffffffffffffffffffff163373ffffffffffffffffffffffffffffffffffffffff161415156106f657600080fd5b6000600281111561070357fe5b600260149054906101000a900460ff16600281111561071e57fe5b14151561072a57600080fd5b61077c34600160008473ffffffffffffffffffffffffffffffffffffffff1673ffffffffffffffffffffffffffffffffffffffff1681526020019081526020016000205461091190919063ffffffff16565b600160008373ffffffffffffffffffffffffffffffffffffffff1673ffffffffffffffffffffffffffffffffffffffff1681526020019081526020016000208190555050565b6000600160028111156107d157fe5b600260149054906101000a900460ff1660028111156107ec57fe5b1415156107f857600080fd5b600160008373ffffffffffffffffffffffffffffffffffffffff1673ffffffffffffffffffffffffffffffffffffffff1681526020019081526020016000205490506000600160008473ffffffffffffffffffffffffffffffffffffffff1673ffffffffffffffffffffffffffffffffffffffff168152602001908152602001600020819055508173ffffffffffffffffffffffffffffffffffffffff166108fc829081150290604051600060405180830381858888f1935050505015156108bf57600080fd5b8173ffffffffffffffffffffffffffffffffffffffff167fd7dee2702d63ad89917b6a4da9981c90c4d24f8c2bdfd64c604ecae57d8d0651826040518082815260200191505060405180910390a25050565b600080828401905083811015151561092557fe5b80915050929150505600a165627a7a7230582021f3eefca45c9c75e4f395185f7b376af8fe54d77564ac4aae74f3f46979b4640029",
  "source": "pragma solidity ^0.4.18;\n\nimport 'zeppelin-solidity/contracts/ownership/Ownable.sol';\nimport 'zeppelin-solidity/contracts/math/SafeMath.sol';\nimport 'zeppelin-solidity/contracts/crowdsale/RefundVault.sol';\nimport 'zeppelin-solidity/contracts/token/ERC20/MintableToken.sol';\nimport './crowdsale/Crowdsale.sol';\nimport './crowdsale/RefundableCrowdsale.sol';\nimport './crowdsale/FinalizableCrowdsale.sol';\nimport './crowdsale/CappedCrowdsale.sol';\nimport './COMToken.sol';\n\ncontract ConectumICO is CappedCrowdsale, RefundableCrowdsale {\n    using SafeMath for uint;\n\n    struct Referrer {\n        address addr;\n        bool isSet;\n    }\n\n    // indexes of different ico stages, mainly for code readability purposes\n    uint constant StrongBelieversStage = 0;\n    uint constant EarlyAdoptersStage = 1;\n    uint constant MainStage = 2;\n\n    // ETH/COM exchange rates of every crowdsale stage\n    uint[] stageRates;\n\n    // current ICO stage index\n    uint public stage = 0;\n\n    // what time every stage starts\n    uint[] stageStarts;\n    // what time every stage ends\n    uint[] stageEnds;\n\n    uint constant minInvest = 0.2 ether;\n\n    // users that were referred by others\n    mapping (address => Referrer) public referredBy;\n    uint constant refBonusPct = 10;\n\n    /**\n    * event for referrer bonus tokens minting\n    * @param referrer who referred current purchaser of the tokens\n    * @param bonus amount of tokens referrer was awarded with\n    */\n    event GiveReferrerBonus(address referrer, uint bonus);\n\n    /**\n    * @param _startTime when ICO should start\n    * @param _softcap in wei\n    * @param _hardcap in wei\n    * @param _wallet that will receive successful ICO funds\n    * @param _stageLengths in seconds\n    * @param _stageBreaks in seconds\n    * @param _stageRates -- ETH/COM\n    */\n    function ConectumICO(\n        uint _startTime,\n        uint _softcap,\n        uint _hardcap,\n        address _wallet,\n        uint[] _stageLengths,\n        uint[] _stageBreaks,\n        uint[] _stageRates,\n        MintableToken _token\n    ) public\n        CappedCrowdsale(_hardcap)\n        FinalizableCrowdsale()\n        RefundableCrowdsale(_softcap)\n        Crowdsale(_startTime, calcEndTime(_startTime, _stageLengths, _stageBreaks), _stageRates[0], _wallet, _token)\n    {\n        require(_stageLengths.length == _stageRates.length);\n        require(_stageBreaks.length + 1 == _stageLengths.length);\n\n        stageRates = _stageRates;\n\n        stageStarts = [\n            uint(startTime),\n            startTime + _stageLengths[0] + _stageBreaks[0],\n            startTime + _stageLengths[0] + _stageBreaks[0] + _stageLengths[1] + _stageBreaks[1]\n        ];\n\n        stageEnds = [\n            uint(stageStarts[0] + _stageLengths[0]), \n            stageStarts[1] + _stageLengths[1], \n            stageStarts[2] + _stageLengths[2]\n        ];\n    }\n\n    function calcEndTime(\n        uint _startTime,\n        uint[] _stageLengths,\n        uint[] _stageBreaks)\n        internal pure returns(uint) {\n        uint acc = _startTime;\n        for (uint i = 0; i < _stageLengths.length; i++) {\n          acc += _stageLengths[i];\n        }\n        for (uint j = 0; j < _stageBreaks.length; j++) {\n          acc += _stageBreaks[j];\n        }\n        return acc;\n    }\n\n    function buyTokens(address beneficiary) public payable {\n        super.buyTokens(beneficiary);\n\n        // try to award referrer of the tokens `beneficiary`\n        uint weiAmount = msg.value;\n        uint tokens = getTokenAmount(weiAmount);\n        // if we are in the referral stage\n        if (inReferralStage() && referredBy[msg.sender].isSet) {\n          // calculate referrer's bonus\n          address referrer = referredBy[msg.sender].addr;\n          uint bonus = tokens * refBonusPct / 100;\n\n          token.mint(referrer, bonus);\n          GiveReferrerBonus(referrer, bonus);\n        }\n    }\n\n    function incStage() external onlyOwner {\n        require(stageEnds[stage] < now);\n        require(now < stageStarts[stage+1]);\n        stage += 1;\n    }\n\n    function getStageStart() external view returns(uint) {\n        return stageStarts[stage];\n    }\n\n    function getStageEnd() external view returns(uint) {\n        return stageEnds[stage];\n    }\n\n    function inReferralStage() internal view returns(bool) {\n        return stage == StrongBelieversStage;\n    }\n\n    function setReference(address participant, address referrer) external onlyOwner {\n        require(participant != address(0));\n        require(referrer != address(0));\n        require(isActive());\n        require(stage == 0);\n        // the referer can only be set once\n        require(!referredBy[participant].isSet);\n        referredBy[participant] = Referrer(referrer, true);\n    }\n\n    function setReferenceBatch(address[] participants, address[] referrers) external onlyOwner {\n        require(participants.length == referrers.length);\n        for (uint i = 0; i < participants.length; i++) {\n            // in order to save gas and since it is used purely for internal reasons:\n            // * no check for whether the referrence was already set\n            // * no check if the address is valid\n            // * no check for the stage state\n            referredBy[participants[i]] = Referrer(referrers[i], true);\n        }\n    }\n\n    // Convert Wei to COM tokens\n    function getTokenAmount(uint weiAmount) internal view returns(uint) {\n        uint rate = stageRates[stage];\n        return weiAmount.mul(rate);\n    }\n\n    // @return true if the transaction can buy tokens\n    function validPurchase() internal view returns (bool) {\n        bool aboveMinInvestment = msg.value >= minInvest;\n        return isActive() && aboveMinInvestment && !isFinalized && super.validPurchase();\n    }\n\n    // @return true if ICO is in one of its ICO stages\n    function isActive() public view returns(bool){\n        uint start = stageStarts[stage];\n        uint end = stageEnds[stage];\n        return now >= start && now <= end;\n    }\n\n    function finalization() internal {\n        super.finalization();\n        token.finishMinting();\n        token.transferOwnership(owner);\n    }\n} \n",
  "sourcePath": "/home/weyland/code/conectum/crowdsale/contracts/ConectumICO.sol",
  "compiler": {
    "name": "solc",
    "version": "0.4.19+commit.c4cbbb05.Emscripten.clang"
  },
  "schemaVersion": "1.0.1",
  "updatedAt": "2018-02-26T17:08:09.408Z"
}