{
  "contractName": "ConectumICO",
  "abi": [
    {
      "constant": true,
      "inputs": [],
      "name": "isActive",
      "outputs": [
        {
          "name": "",
          "type": "bool"
        }
      ],
      "payable": false,
      "stateMutability": "view",
      "type": "function"
    },
    {
      "constant": true,
      "inputs": [],
      "name": "rate",
      "outputs": [
        {
          "name": "",
          "type": "uint256"
        }
      ],
      "payable": false,
      "stateMutability": "view",
      "type": "function"
    },
    {
      "constant": true,
      "inputs": [],
      "name": "endTime",
      "outputs": [
        {
          "name": "",
          "type": "uint256"
        }
      ],
      "payable": false,
      "stateMutability": "view",
      "type": "function"
    },
    {
      "constant": true,
      "inputs": [],
      "name": "cap",
      "outputs": [
        {
          "name": "",
          "type": "uint256"
        }
      ],
      "payable": false,
      "stateMutability": "view",
      "type": "function"
    },
    {
      "constant": true,
      "inputs": [],
      "name": "goal",
      "outputs": [
        {
          "name": "",
          "type": "uint256"
        }
      ],
      "payable": false,
      "stateMutability": "view",
      "type": "function"
    },
    {
      "constant": true,
      "inputs": [],
      "name": "weiRaised",
      "outputs": [
        {
          "name": "",
          "type": "uint256"
        }
      ],
      "payable": false,
      "stateMutability": "view",
      "type": "function"
    },
    {
      "constant": false,
      "inputs": [],
      "name": "finalize",
      "outputs": [],
      "payable": false,
      "stateMutability": "nonpayable",
      "type": "function"
    },
    {
      "constant": true,
      "inputs": [],
      "name": "wallet",
      "outputs": [
        {
          "name": "",
          "type": "address"
        }
      ],
      "payable": false,
      "stateMutability": "view",
      "type": "function"
    },
    {
      "constant": true,
      "inputs": [],
      "name": "startTime",
      "outputs": [
        {
          "name": "",
          "type": "uint256"
        }
      ],
      "payable": false,
      "stateMutability": "view",
      "type": "function"
    },
    {
      "constant": true,
      "inputs": [],
      "name": "goalReached",
      "outputs": [
        {
          "name": "",
          "type": "bool"
        }
      ],
      "payable": false,
      "stateMutability": "view",
      "type": "function"
    },
    {
      "constant": true,
      "inputs": [],
      "name": "isFinalized",
      "outputs": [
        {
          "name": "",
          "type": "bool"
        }
      ],
      "payable": false,
      "stateMutability": "view",
      "type": "function"
    },
    {
      "constant": true,
      "inputs": [],
      "name": "owner",
      "outputs": [
        {
          "name": "",
          "type": "address"
        }
      ],
      "payable": false,
      "stateMutability": "view",
      "type": "function"
    },
    {
      "constant": false,
      "inputs": [],
      "name": "incStage",
      "outputs": [],
      "payable": false,
      "stateMutability": "nonpayable",
      "type": "function"
    },
    {
      "constant": true,
      "inputs": [
        {
          "name": "",
          "type": "address"
        }
      ],
      "name": "referredBy",
      "outputs": [
        {
          "name": "addr",
          "type": "address"
        },
        {
          "name": "isSet",
          "type": "bool"
        }
      ],
      "payable": false,
      "stateMutability": "view",
      "type": "function"
    },
    {
      "constant": false,
      "inputs": [],
      "name": "claimRefund",
      "outputs": [],
      "payable": false,
      "stateMutability": "nonpayable",
      "type": "function"
    },
    {
      "constant": false,
      "inputs": [
        {
          "name": "participant",
          "type": "address"
        },
        {
          "name": "referrer",
          "type": "address"
        }
      ],
      "name": "setReference",
      "outputs": [],
      "payable": false,
      "stateMutability": "nonpayable",
      "type": "function"
    },
    {
      "constant": false,
      "inputs": [
        {
          "name": "beneficiary",
          "type": "address"
        }
      ],
      "name": "buyTokens",
      "outputs": [],
      "payable": true,
      "stateMutability": "payable",
      "type": "function"
    },
    {
      "constant": true,
      "inputs": [],
      "name": "hasEnded",
      "outputs": [
        {
          "name": "",
          "type": "bool"
        }
      ],
      "payable": false,
      "stateMutability": "view",
      "type": "function"
    },
    {
      "constant": false,
      "inputs": [
        {
          "name": "newOwner",
          "type": "address"
        }
      ],
      "name": "transferOwnership",
      "outputs": [],
      "payable": false,
      "stateMutability": "nonpayable",
      "type": "function"
    },
    {
      "constant": true,
      "inputs": [],
      "name": "vault",
      "outputs": [
        {
          "name": "",
          "type": "address"
        }
      ],
      "payable": false,
      "stateMutability": "view",
      "type": "function"
    },
    {
      "constant": true,
      "inputs": [],
      "name": "token",
      "outputs": [
        {
          "name": "",
          "type": "address"
        }
      ],
      "payable": false,
      "stateMutability": "view",
      "type": "function"
    },
    {
      "inputs": [
        {
          "name": "_startTime",
          "type": "uint256"
        },
        {
          "name": "_softcap",
          "type": "uint256"
        },
        {
          "name": "_hardcap",
          "type": "uint256"
        },
        {
          "name": "_wallet",
          "type": "address"
        },
        {
          "name": "_stageLengths",
          "type": "uint256[]"
        },
        {
          "name": "_stageBreaks",
          "type": "uint256[]"
        },
        {
          "name": "_stageRates",
          "type": "uint256[]"
        },
        {
          "name": "_token",
          "type": "address"
        }
      ],
      "payable": false,
      "stateMutability": "nonpayable",
      "type": "constructor"
    },
    {
      "payable": true,
      "stateMutability": "payable",
      "type": "fallback"
    },
    {
      "anonymous": false,
      "inputs": [
        {
          "indexed": false,
          "name": "referrer",
          "type": "address"
        },
        {
          "indexed": false,
          "name": "bonus",
          "type": "uint256"
        }
      ],
      "name": "GiveReferrerBonus",
      "type": "event"
    },
    {
      "anonymous": false,
      "inputs": [],
      "name": "Finalized",
      "type": "event"
    },
    {
      "anonymous": false,
      "inputs": [
        {
          "indexed": true,
          "name": "previousOwner",
          "type": "address"
        },
        {
          "indexed": true,
          "name": "newOwner",
          "type": "address"
        }
      ],
      "name": "OwnershipTransferred",
      "type": "event"
    },
    {
      "anonymous": false,
      "inputs": [
        {
          "indexed": true,
          "name": "purchaser",
          "type": "address"
        },
        {
          "indexed": true,
          "name": "beneficiary",
          "type": "address"
        },
        {
          "indexed": false,
          "name": "value",
          "type": "uint256"
        },
        {
          "indexed": false,
          "name": "amount",
          "type": "uint256"
        }
      ],
      "name": "TokenPurchase",
      "type": "event"
    }
  ],
  "bytecode": "0x60606040526000600760146101000a81548160ff0219169083151502179055506000600d5534156200003057600080fd5b604051620028e5380380620028e583398101604052808051906020019091908051906020019091908051906020019091908051906020019091908051820191906020018051820191906020018051820191906020018051906020019091905050868689620000b48b88886200056964010000000002620016de176401000000009004565b856000815181101515620000c457fe5b906020019060200201518986428510151515620000e057600080fd5b848410151515620000f057600080fd5b6000831115156200010057600080fd5b600073ffffffffffffffffffffffffffffffffffffffff168273ffffffffffffffffffffffffffffffffffffffff16141515156200013d57600080fd5b600073ffffffffffffffffffffffffffffffffffffffff168173ffffffffffffffffffffffffffffffffffffffff16141515156200017a57600080fd5b84600181905550836002819055508260048190555081600360006101000a81548173ffffffffffffffffffffffffffffffffffffffff021916908373ffffffffffffffffffffffffffffffffffffffff160217905550806000806101000a81548173ffffffffffffffffffffffffffffffffffffffff021916908373ffffffffffffffffffffffffffffffffffffffff16021790555050505050506000811115156200022557600080fd5b806006819055505033600760006101000a81548173ffffffffffffffffffffffffffffffffffffffff021916908373ffffffffffffffffffffffffffffffffffffffff1602179055506000811115156200027e57600080fd5b600360009054906101000a900473ffffffffffffffffffffffffffffffffffffffff16620002ab620005f3565b808273ffffffffffffffffffffffffffffffffffffffff1673ffffffffffffffffffffffffffffffffffffffff168152602001915050604051809103906000f0801515620002f857600080fd5b600960006101000a81548173ffffffffffffffffffffffffffffffffffffffff021916908373ffffffffffffffffffffffffffffffffffffffff1602179055508060088190555050815184511415156200035157600080fd5b835160018451011415156200036557600080fd5b81600c90805190602001906200037d92919062000604565b5083600a90805190602001906200039692919062000604565b5082600b9080519060200190620003af92919062000604565b506060604051908101604052806001548152602001846000815181101515620003d457fe5b90602001906020020151866000815181101515620003ee57fe5b90602001906020020151600154010181526020018460018151811015156200041257fe5b906020019060200201518660018151811015156200042c57fe5b906020019060200201518660008151811015156200044657fe5b906020019060200201518860008151811015156200046057fe5b9060200190602002015160015401010101815250600e9060036200048692919062000656565b50606060405190810160405280856000815181101515620004a357fe5b90602001906020020151600e6000815481101515620004be57fe5b906000526020600020900154018152602001856001815181101515620004e057fe5b90602001906020020151600e6001815481101515620004fb57fe5b9060005260206000209001540181526020018560028151811015156200051d57fe5b90602001906020020151600e60028154811015156200053857fe5b90600052602060002090015401815250600f9060036200055a92919062000656565b505050505050505050620006d0565b600080600080869250600091505b8551821015620005ac5785828151811015156200059057fe5b9060200190602002015183019250818060010192505062000577565b600090505b8451811015620005e6578481815181101515620005ca57fe5b90602001906020020151830192508080600101915050620005b1565b8293505050509392505050565b604051610a778062001e6e83390190565b82805482825590600052602060002090810192821562000643579160200282015b828111156200064257825182559160200191906001019062000625565b5b509050620006529190620006a8565b5090565b82805482825590600052602060002090810192821562000695579160200282015b828111156200069457825182559160200191906001019062000677565b5b509050620006a49190620006a8565b5090565b620006cd91905b80821115620006c9576000816000905550600101620006af565b5090565b90565b61178e80620006e06000396000f30060606040526004361061011d576000357c0100000000000000000000000000000000000000000000000000000000900463ffffffff16806322f3e2d4146101285780632c4e722e146101555780633197cbb61461017e578063355274ea146101a757806340193883146101d05780634042b66f146101f95780634bb278f314610222578063521eb2731461023757806378e979251461028c5780637d3d6522146102b55780638d4e4083146102e25780638da5cb5b1461030f5780639a82e39e14610364578063a90f8e9a14610379578063b5545a3c146103fd578063defbb3a514610412578063ec8ac4d81461046a578063ecb70fb714610498578063f2fde38b146104c5578063fbfa77cf146104fe578063fc0c546a14610553575b610126336105a8565b005b341561013357600080fd5b61013b6107fc565b604051808215151515815260200191505060405180910390f35b341561016057600080fd5b610168610856565b6040518082815260200191505060405180910390f35b341561018957600080fd5b61019161085c565b6040518082815260200191505060405180910390f35b34156101b257600080fd5b6101ba610862565b6040518082815260200191505060405180910390f35b34156101db57600080fd5b6101e3610868565b6040518082815260200191505060405180910390f35b341561020457600080fd5b61020c61086e565b6040518082815260200191505060405180910390f35b341561022d57600080fd5b610235610874565b005b341561024257600080fd5b61024a610950565b604051808273ffffffffffffffffffffffffffffffffffffffff1673ffffffffffffffffffffffffffffffffffffffff16815260200191505060405180910390f35b341561029757600080fd5b61029f610976565b6040518082815260200191505060405180910390f35b34156102c057600080fd5b6102c861097c565b604051808215151515815260200191505060405180910390f35b34156102ed57600080fd5b6102f561098b565b604051808215151515815260200191505060405180910390f35b341561031a57600080fd5b61032261099e565b604051808273ffffffffffffffffffffffffffffffffffffffff1673ffffffffffffffffffffffffffffffffffffffff16815260200191505060405180910390f35b341561036f57600080fd5b6103776109c4565b005b341561038457600080fd5b6103b0600480803573ffffffffffffffffffffffffffffffffffffffff16906020019091905050610a8a565b604051808373ffffffffffffffffffffffffffffffffffffffff1673ffffffffffffffffffffffffffffffffffffffff168152602001821515151581526020019250505060405180910390f35b341561040857600080fd5b610410610adb565b005b341561041d57600080fd5b610468600480803573ffffffffffffffffffffffffffffffffffffffff1690602001909190803573ffffffffffffffffffffffffffffffffffffffff16906020019091905050610bdc565b005b610496600480803573ffffffffffffffffffffffffffffffffffffffff169060200190919050506105a8565b005b34156104a357600080fd5b6104ab610e0b565b604051808215151515815260200191505060405180910390f35b34156104d057600080fd5b6104fc600480803573ffffffffffffffffffffffffffffffffffffffff16906020019091905050610e2e565b005b341561050957600080fd5b610511610f86565b604051808273ffffffffffffffffffffffffffffffffffffffff1673ffffffffffffffffffffffffffffffffffffffff16815260200191505060405180910390f35b341561055e57600080fd5b610566610fac565b604051808273ffffffffffffffffffffffffffffffffffffffff1673ffffffffffffffffffffffffffffffffffffffff16815260200191505060405180910390f35b6000806000806105b785610fd1565b3493506105c3846111ae565b92506105cd6111eb565b80156106255750601060003373ffffffffffffffffffffffffffffffffffffffff1673ffffffffffffffffffffffffffffffffffffffff16815260200190815260200160002060000160149054906101000a900460ff165b156107f557601060003373ffffffffffffffffffffffffffffffffffffffff1673ffffffffffffffffffffffffffffffffffffffff16815260200190815260200160002060000160009054906101000a900473ffffffffffffffffffffffffffffffffffffffff1691506064600a840281151561069e57fe5b0490506000809054906101000a900473ffffffffffffffffffffffffffffffffffffffff1673ffffffffffffffffffffffffffffffffffffffff166340c10f1983836000604051602001526040518363ffffffff167c0100000000000000000000000000000000000000000000000000000000028152600401808373ffffffffffffffffffffffffffffffffffffffff1673ffffffffffffffffffffffffffffffffffffffff16815260200182815260200192505050602060405180830381600087803b151561076d57600080fd5b6102c65a03f1151561077e57600080fd5b50505060405180519050507febcfbf8a97b83030f83abf77d91e91f7aa3274d8ef1d54daab38ff6acd015ca68282604051808373ffffffffffffffffffffffffffffffffffffffff1673ffffffffffffffffffffffffffffffffffffffff1681526020018281526020019250505060405180910390a15b5050505050565b6000806000600e600d5481548110151561081257fe5b9060005260206000209001549150600f600d5481548110151561083157fe5b906000526020600020900154905081421015801561084f5750804211155b9250505090565b60045481565b60025481565b60065481565b60085481565b60055481565b600760009054906101000a900473ffffffffffffffffffffffffffffffffffffffff1673ffffffffffffffffffffffffffffffffffffffff163373ffffffffffffffffffffffffffffffffffffffff161415156108d057600080fd5b600760149054906101000a900460ff161515156108ec57600080fd5b6108f4610e0b565b15156108ff57600080fd5b6109076111f7565b7f6823b073d48d6e3a7d385eeb601452d680e74bb46afe3255a7d778f3a9b1768160405160405180910390a16001600760146101000a81548160ff021916908315150217905550565b600360009054906101000a900473ffffffffffffffffffffffffffffffffffffffff1681565b60015481565b60006008546005541015905090565b600760149054906101000a900460ff1681565b600760009054906101000a900473ffffffffffffffffffffffffffffffffffffffff1681565b600760009054906101000a900473ffffffffffffffffffffffffffffffffffffffff1673ffffffffffffffffffffffffffffffffffffffff163373ffffffffffffffffffffffffffffffffffffffff16141515610a2057600080fd5b42600f600d54815481101515610a3257fe5b906000526020600020900154101515610a4a57600080fd5b600e6001600d5401815481101515610a5e57fe5b90600052602060002090015442101515610a7757600080fd5b6001600d60008282540192505081905550565b60106020528060005260406000206000915090508060000160009054906101000a900473ffffffffffffffffffffffffffffffffffffffff16908060000160149054906101000a900460ff16905082565b600760149054906101000a900460ff161515610af657600080fd5b610afe61097c565b151515610b0a57600080fd5b600960009054906101000a900473ffffffffffffffffffffffffffffffffffffffff1673ffffffffffffffffffffffffffffffffffffffff1663fa89401a336040518263ffffffff167c0100000000000000000000000000000000000000000000000000000000028152600401808273ffffffffffffffffffffffffffffffffffffffff1673ffffffffffffffffffffffffffffffffffffffff168152602001915050600060405180830381600087803b1515610bc657600080fd5b6102c65a03f11515610bd757600080fd5b505050565b600760009054906101000a900473ffffffffffffffffffffffffffffffffffffffff1673ffffffffffffffffffffffffffffffffffffffff163373ffffffffffffffffffffffffffffffffffffffff16141515610c3857600080fd5b600073ffffffffffffffffffffffffffffffffffffffff168273ffffffffffffffffffffffffffffffffffffffff1614151515610c7457600080fd5b600073ffffffffffffffffffffffffffffffffffffffff168173ffffffffffffffffffffffffffffffffffffffff1614151515610cb057600080fd5b610cb86107fc565b1515610cc357600080fd5b6000600d54141515610cd457600080fd5b601060008373ffffffffffffffffffffffffffffffffffffffff1673ffffffffffffffffffffffffffffffffffffffff16815260200190815260200160002060000160149054906101000a900460ff16151515610d3057600080fd5b60408051908101604052808273ffffffffffffffffffffffffffffffffffffffff16815260200160011515815250601060008473ffffffffffffffffffffffffffffffffffffffff1673ffffffffffffffffffffffffffffffffffffffff16815260200190815260200160002060008201518160000160006101000a81548173ffffffffffffffffffffffffffffffffffffffff021916908373ffffffffffffffffffffffffffffffffffffffff16021790555060208201518160000160146101000a81548160ff0219169083151502179055509050505050565b600080600654600554101590508080610e285750610e2761139b565b5b91505090565b600760009054906101000a900473ffffffffffffffffffffffffffffffffffffffff1673ffffffffffffffffffffffffffffffffffffffff163373ffffffffffffffffffffffffffffffffffffffff16141515610e8a57600080fd5b600073ffffffffffffffffffffffffffffffffffffffff168173ffffffffffffffffffffffffffffffffffffffff1614151515610ec657600080fd5b8073ffffffffffffffffffffffffffffffffffffffff16600760009054906101000a900473ffffffffffffffffffffffffffffffffffffffff1673ffffffffffffffffffffffffffffffffffffffff167f8be0079c531659141344cd1fd0a4f28419497f9722a3daafe3b4186f6b6457e060405160405180910390a380600760006101000a81548173ffffffffffffffffffffffffffffffffffffffff021916908373ffffffffffffffffffffffffffffffffffffffff16021790555050565b600960009054906101000a900473ffffffffffffffffffffffffffffffffffffffff1681565b6000809054906101000a900473ffffffffffffffffffffffffffffffffffffffff1681565b600080600073ffffffffffffffffffffffffffffffffffffffff168373ffffffffffffffffffffffffffffffffffffffff161415151561101057600080fd5b6110186113a7565b151561102357600080fd5b34915061102f826111ae565b9050611046826005546113f890919063ffffffff16565b6005819055506000809054906101000a900473ffffffffffffffffffffffffffffffffffffffff1673ffffffffffffffffffffffffffffffffffffffff166340c10f1984836000604051602001526040518363ffffffff167c0100000000000000000000000000000000000000000000000000000000028152600401808373ffffffffffffffffffffffffffffffffffffffff1673ffffffffffffffffffffffffffffffffffffffff16815260200182815260200192505050602060405180830381600087803b151561111857600080fd5b6102c65a03f1151561112957600080fd5b50505060405180519050508273ffffffffffffffffffffffffffffffffffffffff163373ffffffffffffffffffffffffffffffffffffffff167f623b3804fa71d67900d064613da8f94b9617215ee90799290593e1745087ad188484604051808381526020018281526020019250505060405180910390a36111a9611416565b505050565b600080600c600d548154811015156111c257fe5b90600052602060002090015490506111e381846114e990919063ffffffff16565b915050919050565b600080600d5414905090565b6111ff611524565b6000809054906101000a900473ffffffffffffffffffffffffffffffffffffffff1673ffffffffffffffffffffffffffffffffffffffff16637d64bcb46000604051602001526040518163ffffffff167c0100000000000000000000000000000000000000000000000000000000028152600401602060405180830381600087803b151561128c57600080fd5b6102c65a03f1151561129d57600080fd5b50505060405180519050506000809054906101000a900473ffffffffffffffffffffffffffffffffffffffff1673ffffffffffffffffffffffffffffffffffffffff1663f2fde38b600760009054906101000a900473ffffffffffffffffffffffffffffffffffffffff166040518263ffffffff167c0100000000000000000000000000000000000000000000000000000000028152600401808273ffffffffffffffffffffffffffffffffffffffff1673ffffffffffffffffffffffffffffffffffffffff168152602001915050600060405180830381600087803b151561138557600080fd5b6102c65a03f1151561139657600080fd5b505050565b60006002544211905090565b6000806702c68af0bb14000034101590506113c06107fc565b80156113c95750805b80156113e25750600760149054906101000a900460ff16155b80156113f257506113f1611673565b5b91505090565b600080828401905083811015151561140c57fe5b8091505092915050565b600960009054906101000a900473ffffffffffffffffffffffffffffffffffffffff1673ffffffffffffffffffffffffffffffffffffffff1663f340fa0134336040518363ffffffff167c0100000000000000000000000000000000000000000000000000000000028152600401808273ffffffffffffffffffffffffffffffffffffffff1673ffffffffffffffffffffffffffffffffffffffff1681526020019150506000604051808303818588803b15156114d257600080fd5b6125ee5a03f115156114e357600080fd5b50505050565b60008060008414156114fe576000915061151d565b828402905082848281151561150f57fe5b0414151561151957fe5b8091505b5092915050565b61152c61097c565b156115cf57600960009054906101000a900473ffffffffffffffffffffffffffffffffffffffff1673ffffffffffffffffffffffffffffffffffffffff166343d726d66040518163ffffffff167c0100000000000000000000000000000000000000000000000000000000028152600401600060405180830381600087803b15156115b657600080fd5b6102c65a03f115156115c757600080fd5b505050611669565b600960009054906101000a900473ffffffffffffffffffffffffffffffffffffffff1673ffffffffffffffffffffffffffffffffffffffff16638c52dc416040518163ffffffff167c0100000000000000000000000000000000000000000000000000000000028152600401600060405180830381600087803b151561165457600080fd5b6102c65a03f1151561166557600080fd5b5050505b6116716116a9565b565b60008060065461168e346005546113f890919063ffffffff16565b111590508080156116a357506116a26116ab565b5b91505090565b565b600080600060015442101580156116c457506002544211155b9150600034141590508180156116d75750805b9250505090565b600080600080869250600091505b855182101561171e57858281518110151561170357fe5b906020019060200201518301925081806001019250506116ec565b600090505b845181101561175557848181518110151561173a57fe5b90602001906020020151830192508080600101915050611723565b82935050505093925050505600a165627a7a72305820c62f90df36f4747b95eeea1aae604e6ef8b1e699d13cba0304a50404f654ada500296060604052341561000f57600080fd5b604051602080610a7783398101604052808051906020019091905050336000806101000a81548173ffffffffffffffffffffffffffffffffffffffff021916908373ffffffffffffffffffffffffffffffffffffffff160217905550600073ffffffffffffffffffffffffffffffffffffffff168173ffffffffffffffffffffffffffffffffffffffff16141515156100a757600080fd5b80600260006101000a81548173ffffffffffffffffffffffffffffffffffffffff021916908373ffffffffffffffffffffffffffffffffffffffff1602179055506000600260146101000a81548160ff0219169083600281111561010757fe5b02179055505061095b8061011c6000396000f300606060405260043610610099576000357c0100000000000000000000000000000000000000000000000000000000900463ffffffff16806343d726d61461009e578063521eb273146100b35780638c52dc41146101085780638da5cb5b1461011d578063c19d93fb14610172578063cb13cddb146101a9578063f2fde38b146101f6578063f340fa011461022f578063fa89401a1461025d575b600080fd5b34156100a957600080fd5b6100b1610296565b005b34156100be57600080fd5b6100c66103ef565b604051808273ffffffffffffffffffffffffffffffffffffffff1673ffffffffffffffffffffffffffffffffffffffff16815260200191505060405180910390f35b341561011357600080fd5b61011b610415565b005b341561012857600080fd5b6101306104f6565b604051808273ffffffffffffffffffffffffffffffffffffffff1673ffffffffffffffffffffffffffffffffffffffff16815260200191505060405180910390f35b341561017d57600080fd5b61018561051b565b6040518082600281111561019557fe5b60ff16815260200191505060405180910390f35b34156101b457600080fd5b6101e0600480803573ffffffffffffffffffffffffffffffffffffffff1690602001909190505061052e565b6040518082815260200191505060405180910390f35b341561020157600080fd5b61022d600480803573ffffffffffffffffffffffffffffffffffffffff16906020019091905050610546565b005b61025b600480803573ffffffffffffffffffffffffffffffffffffffff1690602001909190505061069b565b005b341561026857600080fd5b610294600480803573ffffffffffffffffffffffffffffffffffffffff169060200190919050506107c2565b005b6000809054906101000a900473ffffffffffffffffffffffffffffffffffffffff1673ffffffffffffffffffffffffffffffffffffffff163373ffffffffffffffffffffffffffffffffffffffff161415156102f157600080fd5b600060028111156102fe57fe5b600260149054906101000a900460ff16600281111561031957fe5b14151561032557600080fd5b60028060146101000a81548160ff0219169083600281111561034357fe5b02179055507f1cdde67b72a90f19919ac732a437ac2f7a10fc128d28c2a6e525d89ce5cd9d3a60405160405180910390a1600260009054906101000a900473ffffffffffffffffffffffffffffffffffffffff1673ffffffffffffffffffffffffffffffffffffffff166108fc3073ffffffffffffffffffffffffffffffffffffffff16319081150290604051600060405180830381858888f1935050505015156103ed57600080fd5b565b600260009054906101000a900473ffffffffffffffffffffffffffffffffffffffff1681565b6000809054906101000a900473ffffffffffffffffffffffffffffffffffffffff1673ffffffffffffffffffffffffffffffffffffffff163373ffffffffffffffffffffffffffffffffffffffff1614151561047057600080fd5b6000600281111561047d57fe5b600260149054906101000a900460ff16600281111561049857fe5b1415156104a457600080fd5b6001600260146101000a81548160ff021916908360028111156104c357fe5b02179055507f599d8e5a83cffb867d051598c4d70e805d59802d8081c1c7d6dffc5b6aca2b8960405160405180910390a1565b6000809054906101000a900473ffffffffffffffffffffffffffffffffffffffff1681565b600260149054906101000a900460ff1681565b60016020528060005260406000206000915090505481565b6000809054906101000a900473ffffffffffffffffffffffffffffffffffffffff1673ffffffffffffffffffffffffffffffffffffffff163373ffffffffffffffffffffffffffffffffffffffff161415156105a157600080fd5b600073ffffffffffffffffffffffffffffffffffffffff168173ffffffffffffffffffffffffffffffffffffffff16141515156105dd57600080fd5b8073ffffffffffffffffffffffffffffffffffffffff166000809054906101000a900473ffffffffffffffffffffffffffffffffffffffff1673ffffffffffffffffffffffffffffffffffffffff167f8be0079c531659141344cd1fd0a4f28419497f9722a3daafe3b4186f6b6457e060405160405180910390a3806000806101000a81548173ffffffffffffffffffffffffffffffffffffffff021916908373ffffffffffffffffffffffffffffffffffffffff16021790555050565b6000809054906101000a900473ffffffffffffffffffffffffffffffffffffffff1673ffffffffffffffffffffffffffffffffffffffff163373ffffffffffffffffffffffffffffffffffffffff161415156106f657600080fd5b6000600281111561070357fe5b600260149054906101000a900460ff16600281111561071e57fe5b14151561072a57600080fd5b61077c34600160008473ffffffffffffffffffffffffffffffffffffffff1673ffffffffffffffffffffffffffffffffffffffff1681526020019081526020016000205461091190919063ffffffff16565b600160008373ffffffffffffffffffffffffffffffffffffffff1673ffffffffffffffffffffffffffffffffffffffff1681526020019081526020016000208190555050565b6000600160028111156107d157fe5b600260149054906101000a900460ff1660028111156107ec57fe5b1415156107f857600080fd5b600160008373ffffffffffffffffffffffffffffffffffffffff1673ffffffffffffffffffffffffffffffffffffffff1681526020019081526020016000205490506000600160008473ffffffffffffffffffffffffffffffffffffffff1673ffffffffffffffffffffffffffffffffffffffff168152602001908152602001600020819055508173ffffffffffffffffffffffffffffffffffffffff166108fc829081150290604051600060405180830381858888f1935050505015156108bf57600080fd5b8173ffffffffffffffffffffffffffffffffffffffff167fd7dee2702d63ad89917b6a4da9981c90c4d24f8c2bdfd64c604ecae57d8d0651826040518082815260200191505060405180910390a25050565b600080828401905083811015151561092557fe5b80915050929150505600a165627a7a723058204925ccb731d8706337f88592359deed9bea1bf7d05d28ace4ed73eca58625d540029",
  "source": "pragma solidity ^0.4.18;\n\nimport 'zeppelin-solidity/contracts/ownership/Ownable.sol';\nimport 'zeppelin-solidity/contracts/math/SafeMath.sol';\nimport 'zeppelin-solidity/contracts/crowdsale/RefundVault.sol';\nimport 'zeppelin-solidity/contracts/crowdsale/Crowdsale.sol';\nimport 'zeppelin-solidity/contracts/crowdsale/RefundableCrowdsale.sol';\nimport 'zeppelin-solidity/contracts/crowdsale/FinalizableCrowdsale.sol';\nimport 'zeppelin-solidity/contracts/crowdsale/CappedCrowdsale.sol';\nimport 'zeppelin-solidity/contracts/token/ERC20/MintableToken.sol';\nimport './COMToken.sol';\n\ncontract ConectumICO is CappedCrowdsale, RefundableCrowdsale {\n    using SafeMath for uint;\n\n    struct Referrer {\n        address addr;\n        bool isSet;\n    }\n\n    // indexes of different ico stages, mainly for code readability purposes\n    uint constant StrongBelieversStage = 0;\n    uint constant EarlyAdoptersStage = 1;\n    uint constant MainStage = 2;\n\n    // length of every crowdsale stage\n    uint[] stageLengths;\n    // length of breaks of the crowdsale stages\n    uint[] stageBreaks;\n    // ETH/COM exchange rates of every crowdsale stage\n    uint[] stageRates;\n\n    // current ICO stage index\n    uint stage = 0;\n\n    // what time every stage starts\n    uint[] stageStarts;\n    // what time every stage ends\n    uint[] stageEnds;\n\n    uint constant minInvest = 0.2 ether;\n\n    // users that were referred by others\n    mapping (address => Referrer) public referredBy;\n    uint constant refBonusPct = 10;\n\n    /**\n    * event for referrer bonus tokens minting\n    * @param referrer who referred current purchaser of the tokens\n    * @param bonus amount of tokens referrer was awarded with\n    */\n    event GiveReferrerBonus(address referrer, uint bonus);\n\n    /**\n    * @param _startTime when ICO should start\n    * @param _softcap in wei\n    * @param _hardcap in wei\n    * @param _wallet that will receive successful ICO funds\n    * @param _stageLengths in seconds\n    * @param _stageBreaks in seconds\n    * @param _stageRates -- ETH/COM\n    */\n    function ConectumICO(\n        uint _startTime,\n        uint _softcap,\n        uint _hardcap,\n        address _wallet,\n        uint[] _stageLengths,\n        uint[] _stageBreaks,\n        uint[] _stageRates,\n        MintableToken _token\n    ) public\n        CappedCrowdsale(_hardcap)\n        FinalizableCrowdsale()\n        RefundableCrowdsale(_softcap)\n        Crowdsale(_startTime, calcEndTime(_startTime, _stageLengths, _stageBreaks), _stageRates[0], _wallet, _token)\n    {\n        require(_stageLengths.length == _stageRates.length);\n        require(_stageBreaks.length + 1 == _stageLengths.length);\n\n        stageRates = _stageRates;\n        stageLengths = _stageLengths;\n        stageBreaks = _stageBreaks;\n\n        stageStarts = [\n            uint(startTime),\n            startTime + _stageLengths[0] + _stageBreaks[0],\n            startTime + _stageLengths[0] + _stageBreaks[0] + _stageLengths[1] + _stageBreaks[1]\n        ];\n\n        stageEnds = [\n            uint(stageStarts[0] + _stageLengths[0]), \n            stageStarts[1] + _stageLengths[1], \n            stageStarts[2] + _stageLengths[2]\n        ];\n    }\n\n    function calcEndTime(\n        uint _startTime,\n        uint[] _stageLengths,\n        uint[] _stageBreaks)\n        internal pure returns(uint) {\n        uint acc = _startTime;\n        for (uint i = 0; i < _stageLengths.length; i++) {\n          acc += _stageLengths[i];\n        }\n        for (uint j = 0; j < _stageBreaks.length; j++) {\n          acc += _stageBreaks[j];\n        }\n        return acc;\n    }\n\n    function buyTokens(address beneficiary) public payable {\n        super.buyTokens(beneficiary);\n\n        // try to award referrer of the tokens `beneficiary`\n        uint weiAmount = msg.value;\n        uint tokens = getTokenAmount(weiAmount);\n        // if we are in the referral stage\n        if (inReferralStage() && referredBy[msg.sender].isSet) {\n          // calculate referrer's bonus\n          address referrer = referredBy[msg.sender].addr;\n          uint bonus = tokens * refBonusPct / 100;\n\n          token.mint(referrer, bonus);\n          GiveReferrerBonus(referrer, bonus);\n        }\n    }\n\n    function incStage() external onlyOwner {\n        require(stageEnds[stage] < now);\n        require(now < stageStarts[stage+1]);\n        stage += 1;\n    }\n\n    function inReferralStage() internal view returns(bool) {\n        return stage == StrongBelieversStage;\n    }\n\n    function setReference(address participant, address referrer) external onlyOwner {\n        require(participant != address(0));\n        require(referrer != address(0));\n        require(isActive());\n        require(stage == 0);\n        // the referer can only be set once\n        require(!referredBy[participant].isSet);\n        referredBy[participant] = Referrer(referrer, true);\n    }\n\n    // Convert Wei to COM tokens\n    function getTokenAmount(uint weiAmount) internal view returns(uint) {\n        uint rate = stageRates[stage];\n        return weiAmount.mul(rate);\n    }\n\n    // @return true if the transaction can buy tokens\n    function validPurchase() internal view returns (bool) {\n        bool aboveMinInvestment = msg.value >= minInvest;\n        return isActive() && aboveMinInvestment && !isFinalized && super.validPurchase();\n    }\n\n    // @return true if ICO is in one of its ICO stages\n    function isActive() public view returns(bool){\n        uint start = stageStarts[stage];\n        uint end = stageEnds[stage];\n        return now >= start && now <= end;\n    }\n\n    function finalization() internal {\n        super.finalization();\n        token.finishMinting();\n        token.transferOwnership(owner);\n    }\n} \n",
  "sourcePath": "/Users/marti-1/projects/ethereum/conectum-ico/contracts/ConectumICO.sol",
  "compiler": {
    "name": "solc",
    "version": "0.4.18+commit.9cf6e910.Emscripten.clang"
  },
  "schemaVersion": "1.0.1",
  "updatedAt": "2018-02-16T13:18:13.178Z"
}